{
  "contractName": "PolicyContract",
  "abi": [
    {
      "inputs": [],
      "stateMutability": "nonpayable",
      "type": "constructor"
    },
    {
      "anonymous": false,
      "inputs": [
        {
          "indexed": false,
          "internalType": "uint256",
          "name": "claimId",
          "type": "uint256"
        }
      ],
      "name": "ClaimApproved",
      "type": "event"
    },
    {
      "anonymous": false,
      "inputs": [
        {
          "indexed": false,
          "internalType": "uint256",
          "name": "claimId",
          "type": "uint256"
        }
      ],
      "name": "ClaimRejected",
      "type": "event"
    },
    {
      "anonymous": false,
      "inputs": [
        {
          "indexed": false,
          "internalType": "uint256",
          "name": "claimId",
          "type": "uint256"
        },
        {
          "indexed": false,
          "internalType": "uint256",
          "name": "policyId",
          "type": "uint256"
        },
        {
          "indexed": false,
          "internalType": "address",
          "name": "claimant",
          "type": "address"
        },
        {
          "indexed": false,
          "internalType": "uint256",
          "name": "amount",
          "type": "uint256"
        }
      ],
      "name": "ClaimSubmitted",
      "type": "event"
    },
    {
      "anonymous": false,
      "inputs": [
        {
          "indexed": false,
          "internalType": "uint256",
          "name": "id",
          "type": "uint256"
        }
      ],
      "name": "PolicyCancelled",
      "type": "event"
    },
    {
      "anonymous": false,
      "inputs": [
        {
          "indexed": false,
          "internalType": "uint256",
          "name": "id",
          "type": "uint256"
        },
        {
          "indexed": false,
          "internalType": "address",
          "name": "user",
          "type": "address"
        },
        {
          "indexed": false,
          "internalType": "string",
          "name": "policyDetails",
          "type": "string"
        },
        {
          "indexed": false,
          "internalType": "uint256",
          "name": "premium",
          "type": "uint256"
        }
      ],
      "name": "PolicyCreated",
      "type": "event"
    },
    {
      "inputs": [],
      "name": "admin",
      "outputs": [
        {
          "internalType": "address",
          "name": "",
          "type": "address"
        }
      ],
      "stateMutability": "view",
      "type": "function",
      "constant": true
    },
    {
      "inputs": [],
      "name": "claimCount",
      "outputs": [
        {
          "internalType": "uint256",
          "name": "",
          "type": "uint256"
        }
      ],
      "stateMutability": "view",
      "type": "function",
      "constant": true
    },
    {
      "inputs": [
        {
          "internalType": "uint256",
          "name": "",
          "type": "uint256"
        }
      ],
      "name": "claims",
      "outputs": [
        {
          "internalType": "uint256",
          "name": "id",
          "type": "uint256"
        },
        {
          "internalType": "uint256",
          "name": "policyId",
          "type": "uint256"
        },
        {
          "internalType": "address",
          "name": "claimant",
          "type": "address"
        },
        {
          "internalType": "string",
          "name": "reason",
          "type": "string"
        },
        {
          "internalType": "uint256",
          "name": "amount",
          "type": "uint256"
        },
        {
          "internalType": "enum PolicyContract.Status",
          "name": "status",
          "type": "uint8"
        }
      ],
      "stateMutability": "view",
      "type": "function",
      "constant": true
    },
    {
      "inputs": [
        {
          "internalType": "uint256",
          "name": "",
          "type": "uint256"
        }
      ],
      "name": "policies",
      "outputs": [
        {
          "internalType": "uint256",
          "name": "id",
          "type": "uint256"
        },
        {
          "internalType": "address",
          "name": "user",
          "type": "address"
        },
        {
          "internalType": "string",
          "name": "policyDetails",
          "type": "string"
        },
        {
          "internalType": "uint256",
          "name": "premium",
          "type": "uint256"
        },
        {
          "internalType": "bool",
          "name": "isActive",
          "type": "bool"
        }
      ],
      "stateMutability": "view",
      "type": "function",
      "constant": true
    },
    {
      "inputs": [],
      "name": "policyCount",
      "outputs": [
        {
          "internalType": "uint256",
          "name": "",
          "type": "uint256"
        }
      ],
      "stateMutability": "view",
      "type": "function",
      "constant": true
    },
    {
      "inputs": [
        {
          "internalType": "address",
          "name": "_user",
          "type": "address"
        },
        {
          "internalType": "string",
          "name": "_policyDetails",
          "type": "string"
        },
        {
          "internalType": "uint256",
          "name": "_premium",
          "type": "uint256"
        }
      ],
      "name": "createPolicy",
      "outputs": [],
      "stateMutability": "nonpayable",
      "type": "function"
    },
    {
      "inputs": [
        {
          "internalType": "uint256",
          "name": "_id",
          "type": "uint256"
        }
      ],
      "name": "cancelPolicy",
      "outputs": [],
      "stateMutability": "nonpayable",
      "type": "function"
    },
    {
      "inputs": [
        {
          "internalType": "uint256",
          "name": "_policyId",
          "type": "uint256"
        },
        {
          "internalType": "string",
          "name": "_reason",
          "type": "string"
        },
        {
          "internalType": "uint256",
          "name": "_amount",
          "type": "uint256"
        }
      ],
      "name": "submitClaim",
      "outputs": [],
      "stateMutability": "nonpayable",
      "type": "function"
    },
    {
      "inputs": [
        {
          "internalType": "uint256",
          "name": "_claimId",
          "type": "uint256"
        }
      ],
      "name": "approveClaim",
      "outputs": [],
      "stateMutability": "nonpayable",
      "type": "function"
    },
    {
      "inputs": [
        {
          "internalType": "uint256",
          "name": "_claimId",
          "type": "uint256"
        }
      ],
      "name": "rejectClaim",
      "outputs": [],
      "stateMutability": "nonpayable",
      "type": "function"
    },
    {
      "inputs": [
        {
          "internalType": "uint256",
          "name": "_id",
          "type": "uint256"
        }
      ],
      "name": "getPolicy",
      "outputs": [
        {
          "components": [
            {
              "internalType": "uint256",
              "name": "id",
              "type": "uint256"
            },
            {
              "internalType": "address",
              "name": "user",
              "type": "address"
            },
            {
              "internalType": "string",
              "name": "policyDetails",
              "type": "string"
            },
            {
              "internalType": "uint256",
              "name": "premium",
              "type": "uint256"
            },
            {
              "internalType": "bool",
              "name": "isActive",
              "type": "bool"
            }
          ],
          "internalType": "struct PolicyContract.Policy",
          "name": "",
          "type": "tuple"
        }
      ],
      "stateMutability": "view",
      "type": "function",
      "constant": true
    },
    {
      "inputs": [
        {
          "internalType": "uint256",
          "name": "_id",
          "type": "uint256"
        }
      ],
      "name": "getClaim",
      "outputs": [
        {
          "components": [
            {
              "internalType": "uint256",
              "name": "id",
              "type": "uint256"
            },
            {
              "internalType": "uint256",
              "name": "policyId",
              "type": "uint256"
            },
            {
              "internalType": "address",
              "name": "claimant",
              "type": "address"
            },
            {
              "internalType": "string",
              "name": "reason",
              "type": "string"
            },
            {
              "internalType": "uint256",
              "name": "amount",
              "type": "uint256"
            },
            {
              "internalType": "enum PolicyContract.Status",
              "name": "status",
              "type": "uint8"
            }
          ],
          "internalType": "struct PolicyContract.Claim",
          "name": "",
          "type": "tuple"
        }
      ],
      "stateMutability": "view",
      "type": "function",
      "constant": true
    }
  ],
  "bytecode": "0x608060405234801561001057600080fd5b5033600460006101000a81548173ffffffffffffffffffffffffffffffffffffffff021916908373ffffffffffffffffffffffffffffffffffffffff1602179055506121ee806100616000396000f3fe608060405234801561001057600080fd5b50600436106100b45760003560e01c8063b20e8bcc11610071578063b20e8bcc146101a4578063c0d0735a146101c0578063d3e89483146101dc578063de54d42914610210578063ec1b350e1461022e578063f851a4401461024a576100b4565b806320341101146100b95780632b07fce3146100d557806346e30135146101055780635aef2447146101215780638da4d3c914610151578063a888c2cd1461016f575b600080fd5b6100d360048036038101906100ce91906115cd565b610268565b005b6100ef60048036038101906100ea91906115cd565b6104a5565b6040516100fc9190611d61565b60405180910390f35b61011f600480360381019061011a91906115cd565b6105e8565b005b61013b600480360381019061013691906115cd565b610825565b6040516101489190611d3f565b60405180910390f35b6101596109df565b6040516101669190611d83565b60405180910390f35b610189600480360381019061018491906115cd565b6109e5565b60405161019b96959493929190611e44565b60405180910390f35b6101be60048036038101906101b991906115cd565b610ad6565b005b6101da60048036038101906101d59190611566565b610c74565b005b6101f660048036038101906101f191906115cd565b610f04565b604051610207959493929190611dea565b60405180910390f35b610218610fef565b6040516102259190611d83565b60405180910390f35b610248600480360381019061024391906115f6565b610ff5565b005b610252611340565b60405161025f9190611bc4565b60405180910390f35b600460009054906101000a900473ffffffffffffffffffffffffffffffffffffffff1673ffffffffffffffffffffffffffffffffffffffff163373ffffffffffffffffffffffffffffffffffffffff16146102f8576040517f08c379a00000000000000000000000000000000000000000000000000000000081526004016102ef90611c9f565b60405180910390fd5b600354811061033c576040517f08c379a000000000000000000000000000000000000000000000000000000000815260040161033390611cff565b60405180910390fd5b60006002600083815260200190815260200160002090506000600281111561038d577f4e487b7100000000000000000000000000000000000000000000000000000000600052602160045260246000fd5b8160050160009054906101000a900460ff1660028111156103d7577f4e487b7100000000000000000000000000000000000000000000000000000000600052602160045260246000fd5b14610417576040517f08c379a000000000000000000000000000000000000000000000000000000000815260040161040e90611d1f565b60405180910390fd5b60028160050160006101000a81548160ff02191690836002811115610465577f4e487b7100000000000000000000000000000000000000000000000000000000600052602160045260246000fd5b02179055507f2aa44a1bb19392ef6a2fd220d2b1649a6dc1bebbfa2a6f2c496e2d39a3339d0e826040516104999190611d83565b60405180910390a15050565b6104ad611366565b6000808381526020019081526020016000206040518060a0016040529081600082015481526020016001820160009054906101000a900473ffffffffffffffffffffffffffffffffffffffff1673ffffffffffffffffffffffffffffffffffffffff1673ffffffffffffffffffffffffffffffffffffffff16815260200160028201805461053a9061202e565b80601f01602080910402602001604051908101604052809291908181526020018280546105669061202e565b80156105b35780601f10610588576101008083540402835291602001916105b3565b820191906000526020600020905b81548152906001019060200180831161059657829003601f168201915b50505050508152602001600382015481526020016004820160009054906101000a900460ff1615151515815250509050919050565b600460009054906101000a900473ffffffffffffffffffffffffffffffffffffffff1673ffffffffffffffffffffffffffffffffffffffff163373ffffffffffffffffffffffffffffffffffffffff1614610678576040517f08c379a000000000000000000000000000000000000000000000000000000000815260040161066f90611c9f565b60405180910390fd5b60035481106106bc576040517f08c379a00000000000000000000000000000000000000000000000000000000081526004016106b390611cff565b60405180910390fd5b60006002600083815260200190815260200160002090506000600281111561070d577f4e487b7100000000000000000000000000000000000000000000000000000000600052602160045260246000fd5b8160050160009054906101000a900460ff166002811115610757577f4e487b7100000000000000000000000000000000000000000000000000000000600052602160045260246000fd5b14610797576040517f08c379a000000000000000000000000000000000000000000000000000000000815260040161078e90611d1f565b60405180910390fd5b60018160050160006101000a81548160ff021916908360028111156107e5577f4e487b7100000000000000000000000000000000000000000000000000000000600052602160045260246000fd5b02179055507fd2d0ed0cccc8615643ade1eff3929a29ed8df75ebca85a3996e311c9b69e2289826040516108199190611d83565b60405180910390a15050565b61082d6113ad565b600260008381526020019081526020016000206040518060c001604052908160008201548152602001600182015481526020016002820160009054906101000a900473ffffffffffffffffffffffffffffffffffffffff1673ffffffffffffffffffffffffffffffffffffffff1673ffffffffffffffffffffffffffffffffffffffff1681526020016003820180546108c59061202e565b80601f01602080910402602001604051908101604052809291908181526020018280546108f19061202e565b801561093e5780601f106109135761010080835404028352916020019161093e565b820191906000526020600020905b81548152906001019060200180831161092157829003601f168201915b50505050508152602001600482015481526020016005820160009054906101000a900460ff16600281111561099c577f4e487b7100000000000000000000000000000000000000000000000000000000600052602160045260246000fd5b60028111156109d4577f4e487b7100000000000000000000000000000000000000000000000000000000600052602160045260246000fd5b815250509050919050565b60035481565b60026020528060005260406000206000915090508060000154908060010154908060020160009054906101000a900473ffffffffffffffffffffffffffffffffffffffff1690806003018054610a3a9061202e565b80601f0160208091040260200160405190810160405280929190818152602001828054610a669061202e565b8015610ab35780601f10610a8857610100808354040283529160200191610ab3565b820191906000526020600020905b815481529060010190602001808311610a9657829003601f168201915b5050505050908060040154908060050160009054906101000a900460ff16905086565b600460009054906101000a900473ffffffffffffffffffffffffffffffffffffffff1673ffffffffffffffffffffffffffffffffffffffff163373ffffffffffffffffffffffffffffffffffffffff1614610b66576040517f08c379a0000000000000000000000000000000000000000000000000000000008152600401610b5d90611c9f565b60405180910390fd5b6001548110610baa576040517f08c379a0000000000000000000000000000000000000000000000000000000008152600401610ba190611c1f565b60405180910390fd5b60008082815260200190815260200160002060040160009054906101000a900460ff16610c0c576040517f08c379a0000000000000000000000000000000000000000000000000000000008152600401610c0390611bdf565b60405180910390fd5b600080600083815260200190815260200160002060040160006101000a81548160ff0219169083151502179055507fbb1ae509b65d9486a686f3f1b0435353031b5607109dc80aa4d063887e10f3e881604051610c699190611d83565b60405180910390a150565b600460009054906101000a900473ffffffffffffffffffffffffffffffffffffffff1673ffffffffffffffffffffffffffffffffffffffff163373ffffffffffffffffffffffffffffffffffffffff1614610d04576040517f08c379a0000000000000000000000000000000000000000000000000000000008152600401610cfb90611c9f565b60405180910390fd5b600073ffffffffffffffffffffffffffffffffffffffff168373ffffffffffffffffffffffffffffffffffffffff161415610d74576040517f08c379a0000000000000000000000000000000000000000000000000000000008152600401610d6b90611bff565b60405180910390fd5b60008111610db7576040517f08c379a0000000000000000000000000000000000000000000000000000000008152600401610dae90611c3f565b60405180910390fd5b6040518060a0016040528060015481526020018473ffffffffffffffffffffffffffffffffffffffff1681526020018381526020018281526020016001151581525060008060015481526020019081526020016000206000820151816000015560208201518160010160006101000a81548173ffffffffffffffffffffffffffffffffffffffff021916908373ffffffffffffffffffffffffffffffffffffffff1602179055506040820151816002019080519060200190610e7a929190611431565b506060820151816003015560808201518160040160006101000a81548160ff0219169083151502179055509050507fa988515b5996271d349884b6d7b4ba23f530e12147141d1096212cc3994ad1bb600154848484604051610edf9493929190611d9e565b60405180910390a160016000815480929190610efa90612060565b9190505550505050565b60006020528060005260406000206000915090508060000154908060010160009054906101000a900473ffffffffffffffffffffffffffffffffffffffff1690806002018054610f539061202e565b80601f0160208091040260200160405190810160405280929190818152602001828054610f7f9061202e565b8015610fcc5780601f10610fa157610100808354040283529160200191610fcc565b820191906000526020600020905b815481529060010190602001808311610faf57829003601f168201915b5050505050908060030154908060040160009054906101000a900460ff16905085565b60015481565b6001548310611039576040517f08c379a000000000000000000000000000000000000000000000000000000000815260040161103090611c5f565b60405180910390fd5b600080600085815260200190815260200160002090503373ffffffffffffffffffffffffffffffffffffffff168160010160009054906101000a900473ffffffffffffffffffffffffffffffffffffffff1673ffffffffffffffffffffffffffffffffffffffff16146110e1576040517f08c379a00000000000000000000000000000000000000000000000000000000081526004016110d890611c7f565b60405180910390fd5b8060040160009054906101000a900460ff16611132576040517f08c379a000000000000000000000000000000000000000000000000000000000815260040161112990611cdf565b60405180910390fd5b60008211611175576040517f08c379a000000000000000000000000000000000000000000000000000000000815260040161116c90611cbf565b60405180910390fd5b6040518060c0016040528060035481526020018581526020013373ffffffffffffffffffffffffffffffffffffffff168152602001848152602001838152602001600060028111156111f0577f4e487b7100000000000000000000000000000000000000000000000000000000600052602160045260246000fd5b815250600260006003548152602001908152602001600020600082015181600001556020820151816001015560408201518160020160006101000a81548173ffffffffffffffffffffffffffffffffffffffff021916908373ffffffffffffffffffffffffffffffffffffffff160217905550606082015181600301908051906020019061127f929190611431565b506080820151816004015560a08201518160050160006101000a81548160ff021916908360028111156112db577f4e487b7100000000000000000000000000000000000000000000000000000000600052602160045260246000fd5b02179055509050507f3a30d1c4069e097873e77443df9683e8de5c7ba3674315b8670a0211e313019560035485338560405161131a9493929190611eac565b60405180910390a16003600081548092919061133590612060565b919050555050505050565b600460009054906101000a900473ffffffffffffffffffffffffffffffffffffffff1681565b6040518060a0016040528060008152602001600073ffffffffffffffffffffffffffffffffffffffff16815260200160608152602001600081526020016000151581525090565b6040518060c001604052806000815260200160008152602001600073ffffffffffffffffffffffffffffffffffffffff16815260200160608152602001600081526020016000600281111561142b577f4e487b7100000000000000000000000000000000000000000000000000000000600052602160045260246000fd5b81525090565b82805461143d9061202e565b90600052602060002090601f01602090048101928261145f57600085556114a6565b82601f1061147857805160ff19168380011785556114a6565b828001600101855582156114a6579182015b828111156114a557825182559160200191906001019061148a565b5b5090506114b391906114b7565b5090565b5b808211156114d05760008160009055506001016114b8565b5090565b60006114e76114e284611f22565b611ef1565b9050828152602081018484840111156114ff57600080fd5b61150a848285611fec565b509392505050565b6000813590506115218161218a565b92915050565b600082601f83011261153857600080fd5b81356115488482602086016114d4565b91505092915050565b600081359050611560816121a1565b92915050565b60008060006060848603121561157b57600080fd5b600061158986828701611512565b935050602084013567ffffffffffffffff8111156115a657600080fd5b6115b286828701611527565b92505060406115c386828701611551565b9150509250925092565b6000602082840312156115df57600080fd5b60006115ed84828501611551565b91505092915050565b60008060006060848603121561160b57600080fd5b600061161986828701611551565b935050602084013567ffffffffffffffff81111561163657600080fd5b61164286828701611527565b925050604061165386828701611551565b9150509250925092565b61166681611f7f565b82525050565b61167581611f7f565b82525050565b61168481611f91565b82525050565b61169381611f91565b82525050565b6116a281611fda565b82525050565b6116b181611fda565b82525050565b60006116c282611f52565b6116cc8185611f5d565b93506116dc818560208601611ffb565b6116e581612165565b840191505092915050565b60006116fb82611f52565b6117058185611f6e565b9350611715818560208601611ffb565b61171e81612165565b840191505092915050565b6000611736601a83611f6e565b91507f506f6c69637920697320616c726561647920696e6163746976650000000000006000830152602082019050919050565b6000611776601b83611f6e565b91507f5573657220616464726573732063616e6e6f74206265207a65726f00000000006000830152602082019050919050565b60006117b6602283611f6e565b91507f506f6c6963792077697468207468697320494420646f6573206e6f742065786960008301527f73740000000000000000000000000000000000000000000000000000000000006020830152604082019050919050565b600061181c601e83611f6e565b91507f5072656d69756d206d7573742062652067726561746572207468616e203000006000830152602082019050919050565b600061185c601583611f6e565b91507f506f6c69637920646f6573206e6f7420657869737400000000000000000000006000830152602082019050919050565b600061189c602a83611f6e565b91507f596f752063616e206f6e6c7920636c61696d20616761696e737420796f75722060008301527f6f776e20706f6c696379000000000000000000000000000000000000000000006020830152604082019050919050565b6000611902602283611f6e565b91507f4f6e6c792061646d696e2063616e20706572666f726d2074686973206163746960008301527f6f6e0000000000000000000000000000000000000000000000000000000000006020830152604082019050919050565b6000611968602383611f6e565b91507f436c61696d20616d6f756e74206d75737420626520677265617465722074686160008301527f6e203000000000000000000000000000000000000000000000000000000000006020830152604082019050919050565b60006119ce602783611f6e565b91507f43616e6e6f7420636c61696d20616761696e737420616e20696e61637469766560008301527f20706f6c696379000000000000000000000000000000000000000000000000006020830152604082019050919050565b6000611a34601483611f6e565b91507f436c61696d20646f6573206e6f742065786973740000000000000000000000006000830152602082019050919050565b6000611a74601483611f6e565b91507f436c61696d206973206e6f742070656e64696e670000000000000000000000006000830152602082019050919050565b600060c083016000830151611abf6000860182611ba6565b506020830151611ad26020860182611ba6565b506040830151611ae5604086018261165d565b5060608301518482036060860152611afd82826116b7565b9150506080830151611b126080860182611ba6565b5060a0830151611b2560a0860182611699565b508091505092915050565b600060a083016000830151611b486000860182611ba6565b506020830151611b5b602086018261165d565b5060408301518482036040860152611b7382826116b7565b9150506060830151611b886060860182611ba6565b506080830151611b9b608086018261167b565b508091505092915050565b611baf81611fd0565b82525050565b611bbe81611fd0565b82525050565b6000602082019050611bd9600083018461166c565b92915050565b60006020820190508181036000830152611bf881611729565b9050919050565b60006020820190508181036000830152611c1881611769565b9050919050565b60006020820190508181036000830152611c38816117a9565b9050919050565b60006020820190508181036000830152611c588161180f565b9050919050565b60006020820190508181036000830152611c788161184f565b9050919050565b60006020820190508181036000830152611c988161188f565b9050919050565b60006020820190508181036000830152611cb8816118f5565b9050919050565b60006020820190508181036000830152611cd88161195b565b9050919050565b60006020820190508181036000830152611cf8816119c1565b9050919050565b60006020820190508181036000830152611d1881611a27565b9050919050565b60006020820190508181036000830152611d3881611a67565b9050919050565b60006020820190508181036000830152611d598184611aa7565b905092915050565b60006020820190508181036000830152611d7b8184611b30565b905092915050565b6000602082019050611d986000830184611bb5565b92915050565b6000608082019050611db36000830187611bb5565b611dc0602083018661166c565b8181036040830152611dd281856116f0565b9050611de16060830184611bb5565b95945050505050565b600060a082019050611dff6000830188611bb5565b611e0c602083018761166c565b8181036040830152611e1e81866116f0565b9050611e2d6060830185611bb5565b611e3a608083018461168a565b9695505050505050565b600060c082019050611e596000830189611bb5565b611e666020830188611bb5565b611e73604083018761166c565b8181036060830152611e8581866116f0565b9050611e946080830185611bb5565b611ea160a08301846116a8565b979650505050505050565b6000608082019050611ec16000830187611bb5565b611ece6020830186611bb5565b611edb604083018561166c565b611ee86060830184611bb5565b95945050505050565b6000604051905081810181811067ffffffffffffffff82111715611f1857611f17612136565b5b8060405250919050565b600067ffffffffffffffff821115611f3d57611f3c612136565b5b601f19601f8301169050602081019050919050565b600081519050919050565b600082825260208201905092915050565b600082825260208201905092915050565b6000611f8a82611fb0565b9050919050565b60008115159050919050565b6000819050611fab82612176565b919050565b600073ffffffffffffffffffffffffffffffffffffffff82169050919050565b6000819050919050565b6000611fe582611f9d565b9050919050565b82818337600083830152505050565b60005b83811015612019578082015181840152602081019050611ffe565b83811115612028576000848401525b50505050565b6000600282049050600182168061204657607f821691505b6020821081141561205a57612059612107565b5b50919050565b600061206b82611fd0565b91507fffffffffffffffffffffffffffffffffffffffffffffffffffffffffffffffff82141561209e5761209d6120a9565b5b600182019050919050565b7f4e487b7100000000000000000000000000000000000000000000000000000000600052601160045260246000fd5b7f4e487b7100000000000000000000000000000000000000000000000000000000600052602160045260246000fd5b7f4e487b7100000000000000000000000000000000000000000000000000000000600052602260045260246000fd5b7f4e487b7100000000000000000000000000000000000000000000000000000000600052604160045260246000fd5b6000601f19601f8301169050919050565b60038110612187576121866120d8565b5b50565b61219381611f7f565b811461219e57600080fd5b50565b6121aa81611fd0565b81146121b557600080fd5b5056fea2646970667358221220a5838a0aa33dcd666e935f5138f68d62175486f4ef52f79ae544a044483a084c64736f6c63430008000033",
  "immutableReferences": {},
  "source": "// SPDX-License-Identifier: MIT\r\npragma solidity ^0.8.0;\r\n\r\ncontract PolicyContract {\r\n    // --- Structs ---\r\n    struct Policy {\r\n        uint id;\r\n        address user;\r\n        string policyDetails;\r\n        uint premium; // Stored in Wei\r\n        bool isActive;\r\n    }\r\n\r\n    struct Claim {\r\n        uint id;\r\n        uint policyId;\r\n        address claimant;\r\n        string reason;\r\n        uint amount; // Amount requested in Wei\r\n        Status status; // Use an Enum for claim status\r\n    }\r\n\r\n    // Enum for clear status tracking\r\n    enum Status { Pending, Approved, Rejected }\r\n\r\n    // --- State Variables ---\r\n    mapping(uint => Policy) public policies;\r\n    uint public policyCount;\r\n\r\n    mapping(uint => Claim) public claims;\r\n    uint public claimCount;\r\n\r\n    address public admin;\r\n\r\n    // --- Events ---\r\n    event PolicyCreated(uint id, address user, string policyDetails, uint premium);\r\n    event PolicyCancelled(uint id);\r\n    event ClaimSubmitted(uint claimId, uint policyId, address claimant, uint amount);\r\n    event ClaimApproved(uint claimId);\r\n    event ClaimRejected(uint claimId);\r\n\r\n    // --- Modifiers ---\r\n    modifier onlyAdmin() {\r\n        require(msg.sender == admin, \"Only admin can perform this action\");\r\n        _;\r\n    }\r\n\r\n    constructor() {\r\n        admin = msg.sender;\r\n    }\r\n\r\n    // =================================================================\r\n    // Policy Functions\r\n    // =================================================================\r\n\r\n    function createPolicy(address _user, string memory _policyDetails, uint _premium) public onlyAdmin {\r\n        require(_user != address(0), \"User address cannot be zero\");\r\n        require(_premium > 0, \"Premium must be greater than 0\");\r\n        policies[policyCount] = Policy(policyCount, _user, _policyDetails, _premium, true);\r\n        emit PolicyCreated(policyCount, _user, _policyDetails, _premium);\r\n        policyCount++;\r\n    }\r\n\r\n    function cancelPolicy(uint _id) public onlyAdmin {\r\n        require(_id < policyCount, \"Policy with this ID does not exist\");\r\n        require(policies[_id].isActive, \"Policy is already inactive\");\r\n        policies[_id].isActive = false;\r\n        emit PolicyCancelled(_id);\r\n    }\r\n\r\n    // =================================================================\r\n    // Claim Functions (NEW)\r\n    // =================================================================\r\n\r\n    /**\r\n     * @dev Allows a policyholder to submit a claim against their active policy.\r\n     * @param _policyId The ID of the policy being claimed against.\r\n     * @param _reason A description of the claim.\r\n     * @param _amount The amount being claimed, in Wei.\r\n     */\r\n    function submitClaim(uint _policyId, string memory _reason, uint _amount) public {\r\n        require(_policyId < policyCount, \"Policy does not exist\");\r\n        Policy storage policyToClaim = policies[_policyId];\r\n        \r\n        require(policyToClaim.user == msg.sender, \"You can only claim against your own policy\");\r\n        require(policyToClaim.isActive, \"Cannot claim against an inactive policy\");\r\n        require(_amount > 0, \"Claim amount must be greater than 0\");\r\n\r\n        claims[claimCount] = Claim(claimCount, _policyId, msg.sender, _reason, _amount, Status.Pending);\r\n        emit ClaimSubmitted(claimCount, _policyId, msg.sender, _amount);\r\n        claimCount++;\r\n    }\r\n\r\n    /**\r\n     * @dev Allows the admin to approve a pending claim.\r\n     * @param _claimId The ID of the claim to approve.\r\n     */\r\n    function approveClaim(uint _claimId) public onlyAdmin {\r\n        require(_claimId < claimCount, \"Claim does not exist\");\r\n        Claim storage claimToApprove = claims[_claimId];\r\n        require(claimToApprove.status == Status.Pending, \"Claim is not pending\");\r\n\r\n        claimToApprove.status = Status.Approved;\r\n        \r\n        // In a real-world scenario, you would trigger the payment here.\r\n        // For example: payable(claimToApprove.claimant).transfer(claimToApprove.amount);\r\n        // This requires the contract to hold funds.\r\n\r\n        emit ClaimApproved(_claimId);\r\n    }\r\n\r\n    /**\r\n     * @dev Allows the admin to reject a pending claim.\r\n     * @param _claimId The ID of the claim to reject.\r\n     */\r\n    function rejectClaim(uint _claimId) public onlyAdmin {\r\n        require(_claimId < claimCount, \"Claim does not exist\");\r\n        Claim storage claimToReject = claims[_claimId];\r\n        require(claimToReject.status == Status.Pending, \"Claim is not pending\");\r\n\r\n        claimToReject.status = Status.Rejected;\r\n        emit ClaimRejected(_claimId);\r\n    }\r\n\r\n\r\n    // =================================================================\r\n    // View Functions\r\n    // =================================================================\r\n    \r\n    function getPolicy(uint _id) public view returns (Policy memory) {\r\n        return policies[_id];\r\n    }\r\n\r\n    function getClaim(uint _id) public view returns (Claim memory) {\r\n        return claims[_id];\r\n    }\r\n}\r\n",
  "sourcePath": "C:\\Users\\devas\\Documents\\GitHub\\ChainCare-DS\\chaincare-blockchain\\contracts\\PolicyContract.sol",
  "compiler": {
    "name": "solc",
    "version": "0.8.0+commit.c7dfd78e.Emscripten.clang"
  },
  "schemaVersion": "3.4.16",
  "updatedAt": "2025-08-28T10:22:08.074Z",
  "networkType": "ethereum",
  "devdoc": {
    "kind": "dev",
    "methods": {
      "approveClaim(uint256)": {
        "details": "Allows the admin to approve a pending claim.",
        "params": {
          "_claimId": "The ID of the claim to approve."
        }
      },
      "rejectClaim(uint256)": {
        "details": "Allows the admin to reject a pending claim.",
        "params": {
          "_claimId": "The ID of the claim to reject."
        }
      },
      "submitClaim(uint256,string,uint256)": {
        "details": "Allows a policyholder to submit a claim against their active policy.",
        "params": {
          "_amount": "The amount being claimed, in Wei.",
          "_policyId": "The ID of the policy being claimed against.",
          "_reason": "A description of the claim."
        }
      }
    },
    "version": 1
  },
  "userdoc": {
    "kind": "user",
    "methods": {},
    "version": 1
  }
}